{
  "_format": "hh-sol-artifact-1",
  "contractName": "AccountFactory",
  "sourceName": "contracts/Account.sol",
  "abi": [
    {
      "inputs": [],
      "stateMutability": "nonpayable",
      "type": "constructor"
    },
    {
      "inputs": [
        {
          "internalType": "uint256",
          "name": "accountNonce",
          "type": "uint256"
        },
        {
          "internalType": "address",
          "name": "_owner",
          "type": "address"
        },
        {
          "internalType": "bytes",
          "name": "signature",
          "type": "bytes"
        }
      ],
      "name": "createAccount",
      "outputs": [
        {
          "internalType": "address",
          "name": "",
          "type": "address"
        }
      ],
      "stateMutability": "nonpayable",
      "type": "function"
    },
    {
      "inputs": [
        {
          "internalType": "uint256",
          "name": "nonce",
          "type": "uint256"
        }
      ],
      "name": "getAccountFromNonce",
      "outputs": [
        {
          "internalType": "address",
          "name": "",
          "type": "address"
        }
      ],
      "stateMutability": "view",
      "type": "function"
    },
    {
      "inputs": [],
      "name": "getFactoryNonce",
      "outputs": [
        {
          "internalType": "bytes32",
          "name": "",
          "type": "bytes32"
        }
      ],
      "stateMutability": "view",
      "type": "function"
    },
    {
      "inputs": [
        {
          "internalType": "bytes32",
          "name": "messageHash",
          "type": "bytes32"
        },
        {
          "internalType": "bytes",
          "name": "signature",
          "type": "bytes"
        }
      ],
      "name": "getSignerAddress",
      "outputs": [
        {
          "internalType": "address",
          "name": "",
          "type": "address"
        }
      ],
      "stateMutability": "pure",
      "type": "function"
    }
  ],
  "bytecode": "0x608060405234801561001057600080fd5b50600280546001600160a01b03191633179055610c34806100326000396000f3fe608060405234801561001057600080fd5b506004361061004c5760003560e01c80630f7d8e39146100515780633403e22b146100815780636aff41d314610097578063fc939a87146100aa575b600080fd5b61006461005f3660046103e5565b6100d3565b6040516001600160a01b0390911681526020015b60405180910390f35b6100896101a0565b604051908152602001610078565b6100646100a536600461042c565b6101d2565b6100646100b8366004610491565b6000908152602081905260409020546001600160a01b031690565b602081810151604080840151606085015191517f19457468657265756d205369676e6564204d6573736167653a0a33320000000094810194909452603c84018690526000939091841a908490605c0160408051601f1981840301815282825280516020918201206000845290830180835281905260ff8516918301919091526060820186905260808201859052915060019060a0016020604051602081039080840390855afa15801561018a573d6000803e3d6000fd5b5050604051601f19015198975050505050505050565b60006001546040516020016101b791815260200190565b60405160208183030381529060405280519060200120905090565b60008160006101df6101a0565b6002549091506000906001600160a01b03166101fb83856100d3565b6001600160a01b031614905080610298576040517f08c379a000000000000000000000000000000000000000000000000000000000815260206004820152603460248201527f596f752063616e27742063726561746520616e20736d6172744163636f756e7460448201527f2066726f6d207468697320636f6e747261637421000000000000000000000000606482015260840160405180910390fd5b600180549060006102a8836104aa565b91905055506000866040516102bc90610335565b6001600160a01b039091168152602001604051809103906000f0801580156102e8573d6000803e3d6000fd5b5060009889526020899052604090982080547fffffffffffffffffffffffff0000000000000000000000000000000000000000166001600160a01b038a1617905550959695505050505050565b61072d806104d283390190565b634e487b7160e01b600052604160045260246000fd5b600082601f83011261036957600080fd5b813567ffffffffffffffff8082111561038457610384610342565b604051601f8301601f19908116603f011681019082821181831017156103ac576103ac610342565b816040528381528660208588010111156103c557600080fd5b836020870160208301376000602085830101528094505050505092915050565b600080604083850312156103f857600080fd5b82359150602083013567ffffffffffffffff81111561041657600080fd5b61042285828601610358565b9150509250929050565b60008060006060848603121561044157600080fd5b8335925060208401356001600160a01b038116811461045f57600080fd5b9150604084013567ffffffffffffffff81111561047b57600080fd5b61048786828701610358565b9150509250925092565b6000602082840312156104a357600080fd5b5035919050565b6000600182016104ca57634e487b7160e01b600052601160045260246000fd5b506001019056fe60806040526000805534801561001457600080fd5b5060405161072d38038061072d83398101604081905261003391610058565b600180546001600160a01b0319166001600160a01b0392909216919091179055610088565b60006020828403121561006a57600080fd5b81516001600160a01b038116811461008157600080fd5b9392505050565b610696806100976000396000f3fe608060405234801561001057600080fd5b50600436106100675760003560e01c8063893d20e811610050578063893d20e8146100c1578063ce6d41de146100d2578063da0980c7146100da57600080fd5b80630f7d8e391461006c5780633a871cdd1461009c575b600080fd5b61007f61007a3660046103ea565b6100fa565b6040516001600160a01b0390911681526020015b60405180910390f35b6100b36100aa3660046104a5565b60009392505050565b604051908152602001610093565b6001546001600160a01b031661007f565b6100b36101c7565b6100ed6100e8366004610542565b6101f8565b60405161009391906105da565b602081810151604080840151606085015191517f19457468657265756d205369676e6564204d6573736167653a0a33320000000094810194909452603c84018690526000939091841a908490605c0160408051601f1981840301815282825280516020918201206000845290830180835281905260ff8516918301919091526060820186905260808201859052915060019060a0016020604051602081039080840390855afa1580156101b1573d6000803e3d6000fd5b5050604051601f19015198975050505050505050565b600080546040516020016101dd91815260200190565b60405160208183030381529060405280519060200120905090565b606082828080601f0160208091040260200160405190810160405280939291908181526020018383808284376000920182905250925061023a91506101c79050565b6001549091506000906001600160a01b031661025683856100fa565b6001600160a01b031614905060008081548092919061027490610629565b9190505550806102f15760405162461bcd60e51b815260206004820152603460248201527f596f752063616e27742063726561746520616e20736d6172744163636f756e7460448201527f2066726f6d207468697320636f6e74726163742100000000000000000000000060648201526084015b60405180910390fd5b6000879003610311576040518060200160405280600081525093506103c7565b6000808b6001600160a01b03168b8b8b60405161032f929190610650565b60006040518083038185875af1925050503d806000811461036c576040519150601f19603f3d011682016040523d82523d6000602084013e610371565b606091505b5091509150816103c35760405162461bcd60e51b815260206004820152600b60248201527f43616c6c206661696c656400000000000000000000000000000000000000000060448201526064016102e8565b9450505b5050509695505050505050565b634e487b7160e01b600052604160045260246000fd5b600080604083850312156103fd57600080fd5b82359150602083013567ffffffffffffffff8082111561041c57600080fd5b818501915085601f83011261043057600080fd5b813581811115610442576104426103d4565b604051601f8201601f19908116603f0116810190838211818310171561046a5761046a6103d4565b8160405282815288602084870101111561048357600080fd5b8260208601602083013760006020848301015280955050505050509250929050565b6000806000606084860312156104ba57600080fd5b833567ffffffffffffffff8111156104d157600080fd5b840161016081870312156104e457600080fd5b95602085013595506040909401359392505050565b60008083601f84011261050b57600080fd5b50813567ffffffffffffffff81111561052357600080fd5b60208301915083602082850101111561053b57600080fd5b9250929050565b6000806000806000806080878903121561055b57600080fd5b86356001600160a01b038116811461057257600080fd5b955060208701359450604087013567ffffffffffffffff8082111561059657600080fd5b6105a28a838b016104f9565b909650945060608901359150808211156105bb57600080fd5b506105c889828a016104f9565b979a9699509497509295939492505050565b60006020808352835180602085015260005b81811015610608578581018301518582016040015282016105ec565b506000604082860101526040601f19601f8301168501019250505092915050565b60006001820161064957634e487b7160e01b600052601160045260246000fd5b5060010190565b818382376000910190815291905056fea2646970667358221220818e378b95b6b803715bffdef100a4e0b03312dc9e608020f47ac8f7e6f0a91364736f6c63430008180033a26469706673582212201f8c8e3b183644111622eff6b5de1233cb75b56d9950ac730b0b2b4171f7234b64736f6c63430008180033",
  "linkReferences": {},
  "deployedLinkReferences": {}
}