{
  "_format": "hh-sol-artifact-1",
  "contractName": "Counter",
  "sourceName": "contracts/Account.sol",
  "abi": [
    {
      "inputs": [],
      "name": "count",
      "outputs": [
        {
          "internalType": "uint256",
          "name": "",
          "type": "uint256"
        }
      ],
      "stateMutability": "view",
      "type": "function"
    },
    {
      "inputs": [],
      "name": "iterate",
      "outputs": [],
      "stateMutability": "nonpayable",
      "type": "function"
    }
  ],
  "bytecode": "0x608060405234801561001057600080fd5b5060e58061001f6000396000f3fe6080604052348015600f57600080fd5b506004361060325760003560e01c806306661abd1460375780633d1f8902146051575b600080fd5b603f60005481565b60405190815260200160405180910390f35b60576059565b005b6001600080828254606991906070565b9091555050565b8082018082111560a9577f4e487b7100000000000000000000000000000000000000000000000000000000600052601160045260246000fd5b9291505056fea2646970667358221220a9b55c963c063a6d048e12723db1a0abc9fc2616fac3b994a1cade11768d2f1064736f6c63430008180033",
  "linkReferences": {},
  "deployedLinkReferences": {}
}